:020000040804EE
:1000000000000824857F0508D17F050841DE04082B
:1000100047DE04084DDE040853DE0408000000003B
:1000200000000000000000000000000095640408CB
:10003000D17F0508000000002F6504083F65040813
:10004000D17F0508D17F0508D17F0508D17F05083C
:10005000D17F0508D17F0508D17F0508D17F05082C
:10006000D17F0508D17F0508D17F0508D17F05081C
:10007000D17F0508D17F0508D17F0508D17F05080C
:10008000D17F0508D17F0508D17F0508498C050877
:10009000598C0508558C0508658C0508D17F050825
:1000A000D17F0508D17F0508D17F0508D17F0508DC
:1000B000D17F0508D17F0508D17F0508D17F0508CC
:1000C000D17F0508D17F0508D17F0508D17F0508BC
:1000D000D17F0508D17F0508D17F0508D17F0508AC
:1000E000D17F0508D17F050800000000D17F0508F9
:1000F000D17F0508D17F0508D17F0508D17F05088C
:10010000D17F05088D7C0508D17F0508D17F0508C2
:10011000D17F0508D17F0508D17F0508D17F05086B
:10012000D17F0508D17F0508D17F0508D17F05085B
:10013000D17F050827960408D17F0508D17F0508DF
:10014000D17F0508D17F05080000000000000000F5
:10015000D17F0508D17F0508D17F0508D17F05082B
:10016000D17F0508D17F0508D17F0508D17F05081B
:10017000D17F0508D17F0508D17F05080000000068
:10018000D17F0508D17F0508D17F0508D17F0508FB
:10019000D17F0508D17F0508D17F0508D17F0508EB
:1001A000D17F0508D17F0508D17F0508D17F0508DB
:1001B000D17F0508D17F0508D17F0508D17F0508CB
:1001C000D17F0508D17F0508D17F0508D17F0508BB
:1001D000D17F0508D17F0508D17F0508D17F0508AB
:1001E000D17F0508D17F0508D17F0508D17F05089B
:1001F000D17F0508D17F0508D17F0508D17F05088B
:10020000D17F0508D17F0508D17F0508D17F05087A
:10021000D17F0508D17F0508D17F0508D17F05086A
:10022000D17F0508D17F0508D17F0508D17F05085A
:10023000D17F0508817F0508D17F0508D17F05089A
:10024000D17F0508D17F0508D17F0508D17F05083A
:10025000D17F0508D17F0508D17F0508D17F05082A
:10026000D17F0508D17F0508D17F0508D17F05081A
:10027000D17F0508D17F0508D17F0508D17F05080A
:10028000D17F0508D17F0508D17F05080000000057
:10029000D17F0508D17F050810B5054C237833B907
:1002A000044B13B10448AFF300800123237010BD49
:1002B0004018002400000000E49C060808B5034B29
:1002C0001BB103490348AFF3008008BD00000000E4
:1002D00044180024E49C0608154B002B08BF134B60
:1002E0009D46A3F5803A00218B460F461348144AD9
:1002F000121A1EF0D5FD0F4B002B00D098470E4B65
:10030000002B00D098470020002104000D000D486C
:10031000002802D00C480EF04DFC1EF0C1F8200061
:10032000290008F0F5FB0EF059FE00BF00000800A0
:1003300000000824000000006D8A04084018002412
:1003400048060124B5EB04080000000008B50121AF
:10035000182005F0A7FF01213420BDE8084005F072
:10036000EBBF000008B50021182006F01FF801219E
:10037000342006F061F8084B4FF47A701B6858433C
:100380000EF0E8FF0021342006F056F80121182075
:1003900006F00CF8FEE700BF0400002470B50C4C1A
:1003A0000C4E0D4D20460D4901F084FC32460C499F
:1003B00020460EF0FDFB214601222846202301F0B5
:1003C00001F9324628460749BDE870400EF0F0BBFF
:1003D0005C18002400000024641800240834002461
:1003E000BD04040895160408034B10309B6843F8BD
:1003F0002010BFF34F8F704700ED00E000207047E2
:1004000070470000034B1A688242ACBF1A60186044
:10041000704700BF74640024044B1B68180AC3F3C0
:10042000031300F070001843704700BF002000E085
:10043000064B1B681B0F012B02D100F00100704717
:10044000034B184214BF012000207047002000E039
:10045000010000E000F46843B3F5684F06D000F4F3
:100460007840A0F5704358425841704701207047CA
:1004700002680B689A4203D38CBF012000207047AA
:100480004FF0FF307047FEE730B5EFF30583094AC0
:10049000DBB29361084B1C6BD461D86A1062996A15
:1004A00051625D6B95629D6BD5621C63D8629962E7
:1004B00030BD00BFF424002400ED00E07047406828
:1004C00008B503685B6D98470028D4BF0020012061
:1004D00008BD01207047406808B50368DB6D984788
:1004E000C0B208BD13B5026802AB5468012203F81C
:1004F000011D1946A04702B010BD704770B51C4DD4
:100500006C6A14F0FF0631D01A4803F033F81A4829
:1005100003F030F8304603F037F8230605D51748C6
:1005200003F028F8A86A03F02FF8A60602D51448AD
:1005300003F020F8E00605D5124803F01BF82869FF
:1005400003F022F8210705D50F4803F013F82869B6
:1005500003F01AF8A20702D50C4803F00BF8E307E2
:1005600004D50B48BDE8704003F004B870BD00BF6F
:10057000F42400241D5406082C540608415406088F
:1005800056540608705406088D540608AC540608E4
:10059000BD54060870B51F4D6C6A240A14F0FF069E
:1005A00036D01D4802F0E6FF1C4802F0E3FF30465B
:1005B00002F0EAFF220605D5194802F0DBFFE86ADF
:1005C00002F0E2FFA30602D5164802F0D3FFE606CA
:1005D00005D5154802F0CEFF286902F0D5FF2007A7
:1005E00005D5124802F0C6FF286902F0CDFF610769
:1005F00002D50F4802F0BEFFA20702D50D4802F057
:10060000B9FFE30704D50C48BDE8704002F0B2BF63
:1006100070BD00BFF4240024C05306082C54060803
:100620004154060856540608705406088D540608AE
:10063000CF530608EA53060803540608164B10B5B4
:10064000DC8C44B3154802F095FF154802F092FF88
:10065000204602F099FFA20502D5124802F08AFF57
:10066000E30502D5104802F085FF200702D50F48A8
:1006700002F080FF610702D50D4802F07BFFA20760
:1006800002D50C4802F076FFE30704D50A48BDE81E
:10069000104002F06FBF10BDF4240024D4540608AB
:1006A0002C540608E5540608F95406080F550608A8
:1006B000275506084B5506085E5506082DE9F047F4
:1006C00092F822309146956B012703F010030468DD
:1006D0008046002BE7610BBF102600264FF0320A40
:1006E0004FF0100A06F108039B00EA18226004226A
:1006F0006260A3F120022A44A2600822C4E90571C5
:10070000E26003F1140103F11002032329442A4497
:10071000636221621021226102F090FEC0F340204A
:10072000D9F838200D21504402EB8002404602F0F7
:10073000A5FE5EB105F18003A3621023C4E90B3569
:10074000C0356363C4E90E57BDE8F087064B8422C9
:10075000314618461EF0A4FB2123A062E663C4E9DB
:100760000B36C4E90D66EFE77018002408B508F0F1
:1007700021F8064B012118601A68054B1A60054BD9
:100780001868BDE8084008F0ADB800BF181900248B
:1007900024190024D026002410B5044608210EF0A8
:1007A0008DFC204610BD0B6803604B6843608B686E
:1007B00083607047406804F0C7BE70B50E461446AB
:1007C000002554B122463146012003F0A5FB431C0D
:1007D00003D0241A06440544F3E7284670BD000000
:1007E0000D4B1B681B0F012B02D140F0010070471D
:1007F00020F0604323F0030343F0010341B910F0FC
:10080000020F14BF4FF000404FF080401843704774
:100810004FF04040FAE700BF002000E0F8B5024684
:10082000FFF706FED0B91046FFF7DAFF0546FFF7DF
:10083000F3FD0D4E00220D4F02F16053824203F68C
:1008400002034FEA83030CD034681968240F012C8B
:1008500018BF39408D4205D00132EDE74FF0FF352A
:10086000E5E700231846F8BD002000E0FDFFFFDFAC
:1008700013B50446019201F09DFB3A21204601F098
:1008800073FB9DF80410204601F094FB9DF80510C1
:10089000204601F08FFB9DF80610204601F08AFBF0
:1008A0009DF80710204601F085FB3B21204601F012
:1008B0005BFB02B010BD0000114B1B681B0F03F166
:1008C000606303F58173F0B51B0106460D4F0E48BA
:1008D000984213D084683C40A2420DD10468A642DD
:1008E0000AD1D0F804C00D460024012D02D96D08AC
:1008F0000134FAE7A44502D01030E9E70020F0BD4A
:10090000001000E0AFFD0F00201000E008B50F4B15
:100910001B685B0711D50E4B6FF004001968FFF7D9
:1009200063FD0C4B6FF001001968FFF75DFD0A4B8A
:100930004FF0FF301968FFF757FD084AD36823F4DA
:100940008023D3600022064B1A6008BDF0240024E7
:10095000E4260024E0260024E8260024F0ED00E050
:10096000F02600240C4B0D491868036810B59B69EC
:1009700098470B4B1B785BB90A4A012011684C68F9
:100980009C4207D00A6802EBC30201339071F7E77B
:10099000002010BD0120FCE7001A0024090A040809
:1009A0001419002474190024F8B506460024FFF732
:1009B00033FDDFF850C004F16052A04202F602029B
:1009C0004FEA820214D0DCF8005017682D0F07F0B0
:1009D0000103012D01D11BB9FB0F5BB10134EAE723
:1009E0002B46FAE73046FFF7FBFE10601046F8BDD5
:1009F0000022FBE73046FFF71BFD0028F2D04FF046
:100A0000FF30F2E7002000E010B5114C2368DB074F
:100A10001DD407F0CFFE0F4A1268904217D00E4A3D
:100A20001268904213D007F0B3FE0C4B18680368AD
:100A30009B68984758B12368012243F02003236044
:100A4000074B1A60074AD36843F40033D36010BDE4
:100A5000F0240024D026002470190024001A002459
:100A600068180024F0ED00E00C30704708B5FFF77F
:100A7000FBFF0023036008BDCB68C3600BB15B685C
:100A800018477047C3680BB19B6818477047000050
:100A90000E4B002810B5DC6B4FF0010303FA04F392
:100AA00001FA04F103F1FF3302EA030242EA010210
:100AB000D2B206DB00F1604000F5614080F800230F
:100AC00010BD00F00F00024B1A54F9E7F424002483
:100AD00014ED00E0024A136843F00403136070470A
:100AE000F0240024024B186800F00400704700BF97
:100AF000F0240024004870473825002440F2951067
:100B000070470000034A034692E8030083E80300AD
:100B100018467047FC2400241A4B10B59A69033A12
:100B2000032A2DD8DFE802F00222291F1C6A16488A
:100B300002F020FD154802F01DFD204602F024FDC4
:100B4000002C02DA124802F015FDA20702D5114866
:100B500002F010FD63000BD50F4802F00BFDFFF70C
:100B6000CDFCFFF717FDFFF769FD01E0FFF7C6FCBD
:100B70000A48BDE8104002F0FDBCFFF70BFDF7E7A7
:100B800010BD00BFF4240024915506082C5406081B
:100B9000A1550608B2550608C95506085F70060833
:100BA000134B03F5C16030B50246124C19460433AD
:100BB0000D68A54202D183421946F7D1511A0E4A57
:100BC000136C99420D4BC8BF11641A6822F02002C1
:100BD0001A601A6822F001021A601A6822F0800274
:100BE0001A60074AD36823F40033D36030BD00BFD6
:100BF000E81E0024EFBEADDEF4240024F02400241F
:100C0000F0ED00E00F21014802F018BCF4240024AC
:100C100002460F21014802F031BC00BFF424002439
:100C200008B5FFF7EFFF034B1B6B181A18BF012025
:100C300008BD00BFF424002438B50C4D0446002143
:100C4000284602F0FBFB01212060284602F0F6FB5B
:100C500002216060284602F0F1FB0321A0602846D3
:100C600002F0ECFBE060204638BD00BFF424002415
:100C700002460021014802F001BC00BFF424002418
:100C8000BFF34F8F044B18681A6800F0020022F07F
:100C900002021A60704700BFF024002408B503F078
:100CA00031F90146FFF7ECFF18B10A20FFF7AAFB64
:100CB0000021084608BD000038B50C4C0025256011
:100CC000FFF7A0FFFFF7EAFF23680BB1256038BDEF
:100CD000FFF7C0FB30B1FFF795FF0430BDE83840A7
:100CE000FFF796BFFFF78EFF0230F7E7746400242A
:100CF00038B5104D00242C60FFF784FFFFF7CEFFBE
:100D00002B6813B120462C6038BD4BF6AB6398427C
:100D10000BD000F582430B339BB20A2B07D9B0F5F9
:100D20003E4F0CBF03200020EEE70120ECE702203D
:100D3000EAE700BF7464002470B5344D41F618032F
:100D40006C6AAE691C403ED1EB6913F0020116D00B
:100D5000FFF7CEFF032823460CBF02210121EB60E1
:100D60002B4B29721B689C064BD4033E092E48D896
:100D7000DFE806F02C2C2E3047474747473213F068
:100D8000040321D0234B24481A680B46120F02F1AA
:100D9000606202F5817212019042E0D08468E40141
:100DA0000BD5836803F00F03062B08D0072B08D060
:100DB000052B0CBF0421002103681030ECE7032150
:100DC000FAE70521F8E700231946C8E70B2070BDB4
:100DD0000A20FCE70420FAE7EB69D8060BD4590790
:100DE0000BD49A070BD4DB070DD503230B4A02EB78
:100DF000C3031879EBE70023F8E70123F6E70223A2
:100E0000F4E70220E3E71120E1E700BFF424002427
:100E1000F0240024001000E0201000E058530608E1
:100E200038B5144D04460721284602F007FB072178
:100E300002462046FFF71CFD0D21284602F0FEFA6F
:100E40000D2102462046FFF713FD0E21284602F031
:100E5000F5FA0E2102462046FFF70AFD0F2128462B
:100E600002F0ECFA0F2102462046BDE83840FFF7B9
:100E7000FFBC00BFF424002470B50229104D4FF0D0
:100E8000000406462C6003D013D3042911D8012492
:100E90002B68A3B921463046FFF7C0FC78B921463C
:100EA0003046FFF781FD50B90820BDE87040FFF7DC
:100EB000A9BA04204FF0FF34FFF7A4FAE8E770BDA9
:100EC0007464002438B500230C4D04462B60FFF7F2
:100ED000E5FE2B688BB9FFF7BDFA054601462046B3
:100EE000FFF79CFC48B929462046FFF75DFD20B975
:100EF0000820BDE83840FFF785BA38BD7464002487
:100F000038B502290C4C4FF000030546236011D080
:100F10000AD3042908D80121246824B92846FFF7F8
:100F20007DFC00B1046038BD0420FFF76BFA4FF080
:100F3000FF31F1E71946EFE77464002438B5084C37
:100F4000002305462360FFF7A9FE24683CB9FFF79C
:100F500081FA01462846FFF761FC00B1046038BD04
:100F60007464002438B5174C23681A0711D5236818
:100F70001321154D23F00803AA6B2846236002F0C5
:100F80007DFA6A6B1421284602F078FA0023C5E93D
:100F90000D332368DB060AD5236823F01003236092
:100FA0000A4B9B68D86A20F00100FFF7C7FF084A88
:100FB000D36823F48023D360236823F004032360E1
:100FC00038BD00BFF0240024F424002400ED00E02C
:100FD000F0ED00E00000000038B53D4B3AA1D1E94A
:100FE000000103F5C162E3E902019342FBD14FF432
:100FF000EE720021374802F0E9FA374AFF23374CF6
:101000003449002082F8203092F82030D26863F012
:10101000FF03334DC2F30222DB4302F1010214BF8E
:10102000B3FA83F32023C3F1200393422CBFCB6395
:10103000CA63E3682B4A43F08073E3602A4B1B6862
:101040001B0F03F1606303F581731B01934209D009
:101050001060103242F80C0C52F8081C294042F87B
:10106000081CF3E7FFF7D8F9204B1B68C3F30323F1
:1010700018440023194603F16052984202F6020216
:101080004FEA820202D011600133F4E7174A136875
:1010900043F003031360164A136843F040031360E0
:1010A000FFF760FFE368FF226FF0030023F40033D3
:1010B0001146E360FFF7ECFCE36843F48033E36040
:1010C00038BD00BFAFF30080EFBEADDEEFBEADDEDA
:1010D000E01E0024F424002400ED00E0F0ED00E028
:1010E00050FEFFFF201000E0001000E0002000E0B4
:1010F000F024002438B50C4C0C4D236823F0020377
:101100002360FFF77FFD2863FFF72CFFAB690F2BF0
:10111000234603D9226842F0200222601A6842F076
:1011200001021A6038BD00BFF0240024F42400241A
:10113000022A98BF1D4B70B598BF9D5C01F1FF332B
:1011400088BF002506460B420C461BD14B4230EAB5
:10115000030317D16B1F022B14D82A46FFF7ACFBF1
:1011600000BB134B13491B681B0F03F1606303F5AE
:1011700081731A01914216D08B6813F00F0306D0C9
:101180001031F7E70420BDE87040FFF73BB9012CB0
:1011900002D964080133FAE74B604A689A4202D1E7
:1011A0000E608D6070BD0820EDE700BFD8460608D0
:1011B000001000E0201000E0022A10B598BF104B8C
:1011C00001F1FF348CBF00229A5C0C400AD14B42E3
:1011D00030EA030306D1531F022B03D8FFF76CFB41
:1011E00028B910BD0420BDE81040FFF70BB904601A
:1011F0004460836823F4D77323F001038360F0E72E
:10120000D846060840F24960704700000048704721
:10121000DB460608BFF34F8F0549064BCA6802F448
:10122000E0621343CB60BFF34F8F00BFFDE700BF09
:1012300000ED00E00400FA05F0B571B3174B1B6830
:1012400013F0605F29D00546BFF34F8F144C042282
:101250000646144F2368C3F303439A40531E0340CA
:101260000B449B1A3E601644002BFADCBFF34F8FF1
:101270002268042302F00F0293405A1E10400A4ACB
:101280000144C91A15601D440029FADC074B0122EC
:101290001A60BFF34F8FBFF36F8FF0BD78ED00E0A2
:1012A0007CED00E064EF00E058EF00E078EF00E054
:1012B000B1F1805F38B504460D4608D2C8000DF084
:1012C000E1FE002320606360C4E9025338BD1AF0D8
:1012D000B7FB00002DE9F74F07460024DFF85890D0
:1012E0004FF0020A7B68A34223D94FEAC4083E6844
:1012F00006EB0805AB7963B156F834B095F90530C3
:1013000095F904105846019307F068FA019B8BF891
:10131000213056F80860D9F828309E4207D1AB79C1
:101320002BB90221304607F059FA86F821A0013482
:10133000D8E703B0BDE8F08F2C0C00241FB50023C4
:10134000044604A80393054B40F8081D00930823A6
:10135000D4E900121CF036F904B010BD7104040881
:101360002DE9F74FDFF8548207F024FADFF85092A6
:10137000382107F033FA4FF0FF320021012007F047
:10138000EBFA00281EDC7849784804F07CFE7849A6
:10139000764804F078FE7749744804F074FE0A2217
:1013A00040F2C311714804F0C4FE73496F4804F061
:1013B0006AFE72496D4804F066FE71496B4804F09C
:1013C0006FFEFEE7D8F80030F3B96749674804F0CC
:1013D0005AFE6749654804F056FE6649634804F0C2
:1013E00052FE0A224FF4E271604804F0A2FE624904
:1013F0005E4804F048FE63495C4804F044FE6049DE
:101400005A4804F04DFEFEE75F4E0024D9F8003044
:1014100032685C60DC603360C9F8002007F040FA95
:101420005A4B8246196888421ED94F494F4804F0EA
:101430002AFE4F494D4804F026FE4E494B4804F021
:1014400022FE0A224FF4EE71484804F072FE4A4927
:10145000464804F018FE4E49444804F014FE48493A
:10146000424804F01DFEFEE74A4FDFF834B1386809
:1014700007F026FAA2453BD03B6853F82450464B70
:101480001B689D4232D0DBF800309D422ED02846AA
:1014900007F07EF995F9202095F921302946D9F8F1
:1014A000000001920093FFF749FFDDE9003228B107
:1014B000817919B990F9042090F905303249D1F8B1
:1014C00000C0DCE9011081420CD2DCF800E00EEB38
:1014D000C1004EF831500131437100230271837114
:1014E000CCF804100121284607F078F90134C1E74F
:1014F00030680822294B2A4CD0E900011DF086FDF6
:101500002849D8F80020A1F11400FFF7D7F8206887
:1015100007F094F907F04EF9182107F05FF9224817
:1015200002F01AFB07F046F9382107F057F9206856
:1015300007F06CF91D4B1B685B070ED51C496FF05B
:101540000400FEF751FF1B496FF00100FEF74CFF4E
:1015500019494FF0FF30FEF747FF3068FFF7BAFE3A
:101560000023C8F8003006E7795206083C2D002415
:101570008C520608407006080B53060834520608C1
:101580000D53060843520608741900242819002434
:1015900059520608BC190024D026002471040408FE
:1015A0007019002408250024F4240024F0240024C9
:1015B000051E0408111E04081D1E04082419002419
:1015C00078190024F8B51C46214B0746186858BB0B
:1015D0002048052C1960027004D91F4B9C4202D987
:1015E0001AF02EFA06241D4DA0000DF04BFD1C4BE9
:1015F00005F11006214618602846FFF759FE2146DE
:101600003046FFF755FE174B17481D60174B1E60FD
:10161000174B1C6002F05EF9164A0021164807F0CD
:101620009FF8164A106008B93846F8BD07F0EEF882
:10163000134A0021134807F093F8134B18601B68F6
:10164000002BF1D000221149114802F069F9EBE7B3
:10165000001A002414190024FEFFFF1FF4180024B0
:10166000BC19002474190024225906087819002492
:1016700028190024785306088704040870190024E8
:101680009C53060861130408D02600246509040849
:101690004D0304081B4C206808B508B10DF021FD6E
:1016A000002520692560C4E9015508B10DF019FD38
:1016B0002561C4E90555144C206808B10DF011FDF1
:1016C000002312491248236004F0DDFC1149104840
:1016D00004F0D9FC10490E4804F0D5FC0A2240F26F
:1016E0006F210B4804F025FD0C49094804F0CBFCA0
:1016F0000B49074804F0C7FC0A49054804F0D0FC30
:10170000FEE700BFF4180024BC1900247952060833
:101710003C2D00248C520608407006080B53060826
:10172000466306080D53060810B50022274CFF211A
:101730002260FFF751FC2368002B45D1244A25493C
:101740001360254A25481360082201F064FE082230
:101750002349244801F05FFE234B6FF00C009A6888
:10176000D16A224A11609A68916B214A11609A6885
:10177000D16B204A11609A68D1681F4A11609A683B
:1017800011691E4A11609A6851691D4A11609B686F
:101790001C499A691C4B1A60FEF726FE1B496FF024
:1017A0000B00FEF721FE1A496FF00A00FEF71CFE3F
:1017B00018496FF00900FEF717FE17496FF0030094
:1017C000BDE81040FEF710BE10BD00BF74640024D9
:1017D0006C1900242C190024F0260024F424002481
:1017E000C01900241C19002400ED00E0E4260024A8
:1017F000E0260024E8260024D8260024DC26002445
:10180000D4260024C51D0408EC260024D11D04089C
:10181000DD1D0408E91D0408891D040808B5034BF3
:10182000186803689B68984708BD00BF001A002429
:1018300008B5034B18680368DB68984708BD00BF0C
:10184000001A002410B5064C206803689B6898476E
:101850000028F9D0206803681B69984710BD00BFB5
:10186000001A002407B5064B02A9012201F8010D58
:10187000186803685B69984703B05DF804FB00BF14
:10188000001A0024094B2DE9F0411C680746236823
:101890005D6900F05FFB0646384600F054FB2B46BE
:1018A000024631462046BDE8F0411847001A0024A0
:1018B00040F20E507047000000487047254D060862
:1018C00000207047014B1868704700BF241900249E
:1018D000054B00221B685868DA6018B11A680121AC
:1018E0001068D960704700BF74190024064B1B684C
:1018F000DA6859688A423FBF501C1968D86051F8AD
:10190000320028BF002070477419002408B5044B2A
:1019100001461868FFF712FD003018BF012008BD0E
:101920007419002413B50446FFF7F0FF002835D0E2
:10193000204606F02DFF6278232A37D00FD8022ADE
:101940002ED005D8002A3DD0012A1BD01E4A1AE00D
:10195000042A29D026D3132AF8D11C4A13E0632A7B
:101960002AD007D8432A23D0532A23D0332AEDD1B3
:10197000174A08E0832A21D0932A21D0732AE5D17F
:10198000144A00E0144A104B40210092002818BF6E
:101990000346124A12481DF0D1FF114802B010BD93
:1019A000104AF0E7104AEEE7104AECE7104AEAE77F
:1019B000104AE8E7104AE6E7104AE4E7104AE2E78F
:1019C000104AE0E7104ADEE722590608FF550608EC
:1019D000185606085B560608DE5506089156060896
:1019E0007C190024E4550608EC550608F455060851
:1019F0000C5606082B5606083D5606084A56060899
:101A00006D5606087F560608D555060810B50446DB
:101A1000FFF77CFF48B1064B1B689C4206D0054887
:101A200022460549FEF74AFE024810BD0348FCE77E
:101A3000241900241C1900246C180024F424002408
:101A40000120704738B50446134B0D46621C1868D8
:101A500009D14168002399421CD0026802EBC302FD
:101A600001339571F7E7A31C0BD14168002399421C
:101A700010D0026802EBC302947904B99571013366
:101A8000F5E72146FFF75AFC20B1022D857101D1FF
:101A9000024B1C6038BD00BF74190024F0260024DE
:101AA000104B2DE9F0411D6800240F4B0F4F1E68AD
:101AB0006B68A34213D92B6830464FEAC40853F829
:101AC0003410FFF73BFC40B12B68827943449A7194
:101AD0008379022B01D103683B600134E8E7BDE85C
:101AE000F08100BF7419002478190024F026002426
:101AF00000F00B00092810B51ED02E492E4804F026
:101B0000C2FA2E492C4804F0BEFA2D492A4804F0A6
:101B1000BAFA0A2240F26131274804F00AFB294947
:101B2000254804F0B0FA2849234804F0ACFA2749C4
:101B3000214804F0B5FAFEE7254B1A6882B1254921
:101B4000CA6842F08072CA6023490A6842F0030200
:101B50000A6053E8002F511E43E8001000B1F8E777
:101B60001E4B1B6B33B91E4B1B681BB91D4C2368E6
:101B70007BB910BD1C4B1C6814F0010416D1FEF794
:101B800083FCFEF7C3FE164B1C60BDE81040FEF759
:101B9000EDBD06F00FFE236883420E4BDA680CBFE2
:101BA00042F4802222F48022DA60E2E70B4B1A6BC7
:101BB0001A63DEE7795206083C2D00248C52060891
:101BC000407006080B530608795506080D530608A1
:101BD0006C190024F0ED00E0002000E000ED00E0D2
:101BE00068180024F0260024F0240024F8B500F042
:101BF0000B0305460C461746092B1ED0274B53E80E
:101C0000002F511C43E8001000B1F8E7244B254990
:101C10001A6B1A634FF00042DA62234AD36823F04A
:101C20008073D3600B6823F0030343F002030B605F
:101C3000D36843F40033D360F8BD1C4E3368DA0731
:101C400023D506F0B7FD1A4B1B6883421DD13368BC
:101C500043F002033360124B9B6A5B050BD405F023
:101C60000F050D2D18BF3C46A2691088FEF7F2FB48
:101C700048B10432A2610A4B1A6B1A63DA6ADA625B
:101C80009A6A9A62D8E70232F4E7FEF7FDFBFEF7A4
:101C90003DFEBDE8F840FEF769BD00BF6C190024A9
:101CA00000ED00E0002000E0F0ED00E0F024002472
:101CB000D0260024014AC0E9002170473C530608A1
:101CC00010B50446FEF7DEFE204610BD884238B54A
:101CD000044606D00D46FEF7D5FE20462946FEF7FF
:101CE000CBFE204638BD0000044BC36003460A68A3
:101CF00043F8042B002242605A607047CC46060825
:101D000013B50446019121B9FEF7B0FE204602B09A
:101D100010BD01A9FFF7E8FFF8E77FB545680E465B
:101D2000284603F0F5F8AEB1D5F83406032811D8EB
:101D3000431C05EB0010314600F2F454C5F834366C
:101D40006846FFF7DDFF69462046FFF7BFFF68469C
:101D5000FFF7B6FF284603F0E3F804B070BD68460D
:101D6000FFF7AEFF19F044FF0368184708B5FFF707
:101D7000FBFF08BD024B00225A60024A1A607047FE
:101D8000041A0024245306087046FFF7B1BE7046BB
:101D9000EFF30981EFF3088200F00F0CBCF10D0F97
:101DA0003FF424AFBCF1090F3FF420AFDFF810C0BF
:101DB000DCF800C01CF0004F7FF418AF9F46000015
:101DC0002CED00E0014B1B68FFF7E1BFD826002493
:101DD000014B1B68FFF7DBBFDC260024014B1B68AF
:101DE000FFF7D5BFD4260024014B1B68FFF7CFBFF8
:101DF000EC26002402490A6842F400320A60874651
:101E0000FCED00E001480068FFF7F4BFE426002481
:101E100001480068FFF7EEBFE02600240148006893
:101E2000FFF7E8BFE8260024A0F16103052B01D8E5
:101E300057387047A0F14103052B01D83738704758
:101E40003038C3B2092B07D9044A4FF0FF3013686A
:101E5000022BB8BF02231360704700BF74640024D4
:101E60000A440160C0E9012170470368836070473C
:101E7000D0E90123934238BF43607047D0E90103A2
:101E8000834294BFC01A00207047024608B5FFF78E
:101E9000F5FF9368884294BF18185818906008BDE1
:101EA00008B50246FFF7EAFF884208D253680133BB
:101EB0009360034A1368012BB8BF0123136008BD68
:101EC00074640024F8B50D461C46114600230F4AE1
:101ED000064613604368284603FB04F7FFF7CEFF6E
:101EE000874284BF0123136013680BB10020F8BD43
:101EF00033682246284698470028F7D072680120A8
:101F0000AB6802FB0434AC60F1E700BF74640024EA
:101F100070B5856806461446284601F06AFB70B91C
:101F20003046FFF7ABFFA0420BD0285DA0F13A038B
:101F3000012B06D9A0F12C035842584170BD002056
:101F4000FCE70120FAE7D0E90030834294BFC01AD1
:101F50000020704700687047D0E90102824294BFB8
:101F6000002001207047000070B50023064D0E468A
:101F700001212B600446FFF793FF2B681BB9A36870
:101F80005A1CA2601E7070BD7464002470B5084EA7
:101F90000024012105463460FFF782FF336823B92E
:101FA000AB685A1CAA60187870BD2046FCE700BFD9
:101FB0007464002470B500230B4E0C46022133607C
:101FC0000546FFF76DFF33686BB9AB68210904F074
:101FD0000F045A1CAA60054A515C125D1970AB6867
:101FE000591CA9601A7070BD74640024BC560608A0
:101FF00038B500230F4C022105462360FFF750FF40
:10200000236813B10021084638BDAB681878FFF784
:102010000BFF23680001C1B22BB9AB685878FFF7FA
:1020200003FF0143C9B22368002BEBD1AB68023335
:10203000AB60E8E7746400242DE9F04105461746DB
:1020400084680E4601EB0208464518D10021AC60B9
:1020500011BB2846FFF712FF7B0098421ED09A1C46
:10206000904209D314F81720322A05D11C44617814
:10207000A1F13003594259410846BDE8F081284694
:10208000FFF7B6FF16F8013B984202D3DCD90121D5
:10209000DDE74FF0FF31DAE70021EDE70121EBE763
:1020A000F8B500230A4F0C4611463B60064615461C
:1020B000FFF7F6FE3B6813B92544A54200D1F8BDF1
:1020C000B3685A1CB26014F8012B1A70F5E700BF10
:1020D0007464002438B505460C46084601F09AFAA7
:1020E000214602462846BDE83840FFF7D9BFF8B57B
:1020F00007460D46FFF7C2FE4408944228BF144627
:102100000E19B54201D12046F8BD15F8011B38461D
:10211000FFF750FFF5E738B505460C46084601F0D5
:1021200079FA214602462846BDE83840FFF7DFBF6E
:102130002DE9F8430025174F04462E46A946B84618
:102140002046C7F80090FFF721FF3B684BB9FFF727
:102150006BFE3B6853B1A3682268934201D9013BEF
:10216000A360D8F8003023B90136E9E700EB051584
:10217000F7E70023C8F80030D4E901329A4288BF5B
:10218000A3601EB903233546C8F800302846BDE8D1
:10219000F88300BF746400242DE9F84380460E469E
:1021A00019B9BDE8F843FFF705BF4FF07F4300249E
:1021B0001E4203D101341B0A042CF9D1C4F10304DB
:1021C0000A4F4FF00009E500002C0CDB26FA05F160
:1021D0004046C7F80090013CC9B2083DFFF7EAFE4F
:1021E0003B68002BF0D0BDE8F88300BF7464002486
:1021F00070B50022084C0D1E0646226003DA2D2120
:102200006D42FFF7B1FE23682BB929463046BDE881
:102210007040FFF7C1BF70BD746400240A4A0023F8
:1022200010B504461360FFF729FE08B901231360B7
:10223000106838B9A3681A788A4202D101330120A4
:10224000A36010BD0020FCE774640024F8B5124DB3
:1022500000242D2107462C60FFF7E0FF2B6806467F
:1022600063B93846FFF764FF2B6893B946B9002875
:1022700003DA03236FF000402B60F8BD2046F3E73C
:10228000B0F1004F85BF03234FF0004040422B6068
:10229000F3E70020F1E700BF74640024084B73B536
:1022A00005460E466C4693E803001346324684E822
:1022B000030029462046FFF705FE02B070BD00BFAF
:1022C000AC560608084B73B505460E466C4693E8B7
:1022D00003001346324684E8030029462046FFF7F0
:1022E000F1FD02B070BD00BFB4560608034B1B6879
:1022F000042B0CBF0248034801F050BB7464002457
:10230000CC560608D056060870B50646104C01F0AB
:10231000C3FB002305462360FFF738FE23683072B5
:10232000ABB92C21284600F0C7F823687BB92846B2
:1023300000F0B4F8236830604BB92C21284600F037
:10234000BBF823681BB9284600F0A8F8706070BD80
:1023500074640024D1E9003110B50022084C2260D9
:1023600002461846FEF7E4FE23681BB1BDE81040A4
:10237000FFF7BCBF0348BDE8104001F00FBB00BF32
:102380007464002405930608D1E9003110B50022D9
:10239000084C226002461846FEF70EFF23681BB168
:1023A000BDE81040FFF7A2BF0348BDE8104001F0B0
:1023B000F5BA00BF74640024059306081FB5002316
:1023C000164C01A82360FFF79FFF23681BB1144838
:1023D00001F0E4FA10E09DF80C30313B032B1BD8E0
:1023E000DFE803F0020F1417DDE90101FEF744FDF9
:1023F000236823B1FFF77AFF002004B010BD09481D
:10240000E6E701A90020FFF7A5FFF5E701A90120F4
:10241000F9E701A90220F6E70348D9E7746400242C
:10242000CC56060805930608225906081FB5002356
:10243000164C01A82360FFF767FF23681BB11448FF
:1024400001F0ACFA10E09DF80C30313B032B1BD8A7
:10245000DFE803F0020F1417DDE90101FEF750FD7C
:10246000236823B1FFF742FF002004B010BD0948E4
:10247000E6E701A90020FFF787FFF5E701A90120A2
:10248000F9E701A90220F6E70348D9E774640024BC
:10249000CC560608059306082259060810B50023F5
:1024A000044C2360FFF744FE2368002B18BF002074
:1024B00010BD00BF7464002408B5FFF7AFFE28B953
:1024C000034A1368042BB8BF0423136008BD00BF80
:1024D0007464002470B50023094C0D460646236041
:1024E000FFF7DCFF236828604BB92C213046FFF74B
:1024F000E3FF23681BB93046FFF7D0FF686070BD6B
:102500007464002438B50023064C05462360FFF7A9
:10251000E1FF23682BB928463A21BDE83840FFF790
:10252000CBBF38BD7464002408B5FEF779FB08B151
:10253000002008BDFEF7DCFB0328F9D1FEF7BCFB49
:102540000420F6E770B506460D46FFF779FA20B18C
:1025500001214FF0FF30FFF775FAFFF7E5FF044662
:1025600016B12846FEF754FB44F0030070BD00008E
:1025700038B5094D002401F08FFA2C60FFF78EFF6B
:102580002B68014623B90120BDE83840FFF7DABFC8
:102590002C602046F8E700BF7464002470B501F099
:1025A0007BFA134D002306462B60FFF777FF2C685C
:1025B000CCB93046FFF762FC68B13B213046FFF7EB
:1025C0002DFE40B13046FFF769FF2C680146B4FA92
:1025D00084F4640900E000212B6823B92046BDE89B
:1025E0007040FFF7AFBF034801F0D8F9002070BD7D
:1025F00074640024CC56060808B5FFF721FA20B110
:1026000001214FF0FF30FFF71DFAFFF78DFF024861
:1026100001F0C4F9012008BD0593060808B501F0D2
:1026200061FA01F0C7F948B101F00AFA08B901F0FE
:102630000FFA022001F018FA002008BD01F008FA94
:102640000120FAE738B5054601F02AFA0446124996
:10265000FFF740FD29682046FFF79EFD20462F2109
:10266000FFF782FC69682046FFF796FD20462C2183
:10267000FFF77AFCA9682046FFF78EFD20462C2143
:10268000FFF772FCE9682046FFF786FD01F010FABB
:10269000BDE83840FFF7C2BFE856060838B5054622
:1026A00001F0FEF904460E49FFF714FD29682046A3
:1026B000FFF772FD20462C21FFF756FC6968204683
:1026C000FFF76AFD20462C21FFF74EFCA968204643
:1026D000FFF762FD01F0ECF9BDE83840FFF79EBF5F
:1026E0001657060838B5054601F0DAF904460E49D2
:1026F000FFF7F0FC29682046FFF74EFD20462C210D
:10270000FFF732FC69682046FFF746FD20462C2182
:10271000FFF72AFCA9682046FFF73EFD01F0C8F943
:10272000BDE83840FFF77ABFEF56060838B50546D2
:1027300001F0B6F904460649FFF7CCFC29462046CD
:10274000FFF72AFD01F0B4F9BDE83840FFF766BF96
:10275000D756060838B5054601F0A2F904460E49D9
:10276000FFF7B8FC29682046FFF716FD20462C210C
:10277000FFF7FAFB69682046FFF73AFD20462C2157
:10278000FFF7F2FBA9682046FFF732FD01F090F950
:10279000BDE83840FFF742BFF656060870B50D4653
:1027A000064601F07DF904460A49FFF793FC3146DD
:1027B0002046FFF7F1FC20462C21FFF7D5FB2946E8
:1027C0002046FFF7E9FC01F073F9BDE87040FFF720
:1027D00025BF00BFFE56060838B5054601F060F972
:1027E00004460A49FFF776FC29682046FFF7D4FC27
:1027F00020462F21FFF7B8FB69682046FFF7CCFC85
:1028000001F056F9BDE83840FFF708BF0D5706083C
:1028100038B5054601F044F904460E49FFF75AFC65
:1028200029682046FFF7B8FC20462F21FFF79CFBC4
:1028300069682046FFF7B0FC20462C21FFF794FB87
:10284000A9682046FFF7A8FC01F032F9BDE838403E
:10285000FFF7E4BE0657060838B5054601F020F933
:1028600004461249FFF736FC29682046FFF794FC1E
:1028700020462F21FFF778FB69682046FFF78CFC84
:1028800020462C21FFF770FBA9682046FFF784FC47
:1028900020462F21FFF768FBE9682046FFF77CFC04
:1028A00001F006F9BDE83840FFF7B8BEDF5606086C
:1028B00070B501F0F1F80546FFF7C8FC2C2106467B
:1028C0002846FFF7ABFC0446A8B12846FFF7BEFC3C
:1028D0000222044609492846FFF7E0FC0546214646
:1028E000304601F0CDF8284601F09EF8044B002256
:1028F00003201A6070BD0546F1E700BFD4560608F4
:102900007464002437B501F0C7F80D4C0023694604
:1029100005462360FFF7DEFD23682BB1094801F06F
:102920003DF8002003B030BD01F028F82846DDE96D
:10293000001200F0D9FE0028F3D10348EFE700BFF2
:1029400074640024CC5606081E57060837B501F0FB
:10295000A3F80F4D0023694604462B60FFF7D2FD14
:102960002B682BB10B4801F019F8002003B030BDE3
:10297000DDE90012204600F0F9FE08B10648F2E752
:102980002046FFF7E9FA08B10448ECE70448EAE713
:1029900074640024CC5606080593060822570608DE
:1029A0001E57060873B501F077F8124D00236946EB
:1029B00004462B60FFF7A6FD2B682BB10E4800F0F4
:1029C000EDFF002002B070BDDDE900562046324622
:1029D000294600F017FF28B128463146FEF72CFCA7
:1029E0000648ECE72046FFF7B7FA08B10448E6E7E7
:1029F0000448E4E774640024CC56060805930608EE
:102A0000225706081E5706082DE9F843064601F02E
:102A100043F807467468D6E90285444593BF00240D
:102A2000A4EB08044FF06D094FF06C0998BF2546E0
:102A300000F0A4FF3846FFF721FA854228BF05467B
:102A40003846AC423CBF4FF06C0925464946FFF77B
:102A50008BFA31682A4638464144BDE8F843FFF70F
:102A60001FBB38B5054601F01BF8044625B96C219B
:102A7000FFF77AFA002038BD6D21FFF775FA294675
:102A80002046FFF789FB2046FFF7F8F90828F1D91F
:102A9000FEF72CFF05460028ECD02C212046ECE761
:102AA00008B5074800F066FD064800F063FD0648DB
:102AB00000F060FD054800F071FF002008BD00BF78
:102AC0002F5706084D570608555706080593060860
:102AD000F7B50E460546102200213046214C00F085
:102AE00075FD3A212846FFF799FB30B92368042B7E
:102AF000B8BF0423236003B0F0BD04221A4928465E
:102B0000FFF7CCFB0028F1D03A212846FFF786FBDF
:102B10000028EBD0002315490A2228462360FFF73E
:102B2000BDFB07463A21284647B1FFF777FBB8B906
:102B30002368042BB8BF0423236004E0FFF76EFB77
:102B40000028F5D0384623683060002BD3D1694681
:102B50002846FFF7BFFC009BB360019BF360CAE708
:102B60000248F0E7746400243F58060854580608E9
:102B70007FB500F091FF09226C490446FFF78EFBF8
:102B8000064678B1FDF7BAFF054600F089FF044616
:102B90006749FFF79FFA291F2046FFF7FDFA00203B
:102BA00004B070BD042263492046FFF777FB00287C
:102BB00053D000F071FF3A210446FFF72FFB18B9FC
:102BC0005D4800F0EBFEEAE70A225C492046FFF789
:102BD00065FB0546C8B15A4C00F05EFF69462660A9
:102BE000FFF776FF23681BB9009B0BB1042323601A
:102BF0002368002BE4D1FEF75FFE0090FEF758FE3D
:102C000001906846FFF700FFC9E708224D492046BA
:102C1000FFF744FBF8B14A4C00F03EFF69462560DF
:102C2000FFF756FF2368002BCAD1009868B92368C4
:102C3000042BB8BF042323602368002BC0D1FEF708
:102C4000E5FA0090FEF7DEFADAE73F4900F0C6FC4D
:102C50000028ECD1F0E73D48B3E70B223C49204681
:102C6000FFF71CFB30B1FEF733FE0028F3D0FFF76F
:102C7000F8FE95E70B2237492046FFF70FFB10B10E
:102C8000FEF734FEF3E70F2233492046FFF706FB39
:102C9000A0B100F001FF2C210446FFF7BFFA002885
:102CA0008ED02046FFF744FAFEF73CFE044600F0C3
:102CB000F7FE64B32146FFF72EFA70E70422274996
:102CC0002046FFF7EBFA0028C5D000F0E5FE2C21E6
:102CD0000546FFF7A3FA00283FF472AF052220490A
:102CE0002846FFF7EFFA044630B100F06BFE1D48AE
:102CF00000F040FC1C4864E709221C492846FFF705
:102D0000E1FA30B1FDF708FF174800F047FE204612
:102D100046E7042216492846FFF7D4FA10B1FFF718
:102D2000BFFE3DE7134800F025FCF8E7C057060852
:102D3000F7570608DA570608CC56060866570608FD
:102D4000746400242657060871570608225906089D
:102D5000DF570608EB570608CA570608BB57060890
:102D6000445806087C570608059306084A58060882
:102D7000615706089B57060873B500F07BFE0546B1
:102D800000F08EFE0446FEF79DFD542106462046C7
:102D9000FFF7EAF829462046FFF70CF97EB11C49F7
:102DA0002046FFF797F93A212046FFF7DDF8314634
:102DB0002046FFF7F1F93B212046FFF7D5F8052D16
:102DC0001CD16846FDF79EFE9DF80030042B05D00F
:102DD000052B1BD0032B11D10E4900E00E492046D4
:102DE000FFF778F93A212046FFF7BEF8019920460F
:102DF000FFF7D2F93B212046FFF7B6F82046FEF751
:102E00000FF800F055FE022002B070BD0349E6E75E
:102E100057630608675806085F580608665806088C
:102E200010B500F0F5FD044600F03AFE01462046DC
:102E300000F042FB002010BD10B500F02DFE04464E
:102E400000F0E6FD214600F05CFB2046FFF784F829
:102E500020B1034800F0A2FD002010BD0148F9E7B1
:102E6000225706080593060838B5FFF781FB43078C
:102E7000044603D5BDE83840FFF77EBF80B1FDF7BB
:102E8000C1FE0546FDF726FEFDF7BCFEA842F1D1C6
:102E9000FEF7D6FD20B1FEF715FD0221FEF7D2FDAB
:102EA000204638BD10B5FFF779FB4307044603D52C
:102EB000BDE81040FFF760BF48B1FEF7C1FD20B18B
:102EC000FEF700FD0221FEF7BDFDFDF703FE2046E3
:102ED00010BD000038B500F0DFFD134C002305469F
:102EE0002360FFF753F823682BB9672808D0042321
:102EF0002360236813B10D4800F050FD002038BD59
:102F00002846FFF715F92368002BF4D1FEF77EFD64
:102F100020B92368042BB8BF0423E9E700F07EFD45
:102F2000034800F03BFDE4E774640024CC56060837
:102F30000593060810B500F0AFFD0D4C002323608B
:102F4000FFF7F6F823683BB9FEF7E0FC58B92368B1
:102F5000042BB8BF04232360236813B1054800F095
:102F60001DFD002010BD044800F018FDF4E700BF6F
:102F700074640024CC56060805930608F8B5044688
:102F800008460D46FEF77AFF18B900232360237127
:102F900019E03A212846FFF741F90028F5D002222E
:102FA0000B492846FFF77AF9064618B1002323603B
:102FB000FF23ECE7074F38602846FFF7B9F83B6876
:102FC000206013B126712046F8BD0123DFE700BF62
:102FD0007D5806087464002438B5037C0546022B2E
:102FE00009D0032B0BD0012B13D10021BDE83840B1
:102FF0000846FFF7A7BABDE83840FFF735BFFFF72F
:1030000033FF044618B105F1080000F0F3FC204638
:1030100038BD0248002400F0C1FCF8E7CC56060891
:103020002DE9F04305468BB008460C46FEF7AEFF8F
:10303000064614220021684600F0C8FA632E1BD011
:103040000DD8432E484F28D0532E73D0464A2E46D3
:103050006C461368042BB8BF0423136018E0722E6B
:1030600030D0732EF2D1214605A8FFF787FF002349
:10307000CDE90733022307E0214605A8FFF77EFFCD
:103080000023CDE9073301232E4605AC8DF824300B
:103090000FCC0FC62368336045E0002620463E6013
:1030A000FEF7A6FF3B6853B9214605A8FFF766FF68
:1030B000059A9DF9183005928DF81830E0E73346EF
:1030C0003246F8E70023DFF8A0802046C8F8003039
:1030D000FFF72EF8D8F800308146002B3FD12C2185
:1030E0002046FFF7E9F9D8F80060002E37D12046D6
:1030F000FFF71EF8D8F800300746C3B9214605A8E7
:10310000FFF73CFF059A9DF918308DF8183005AE91
:10311000032305922C468DF82430CDE907970FCE76
:103120000FC43368236028460BB0BDE8F0833346F4
:103130003246EAE7002620463E60FEF759FF3B682C
:1031400053B9214605A8FFF719FF059A9DF91830D4
:1031500005928DF818308AE733463246F8E70027A3
:103160003B463A46D1E700BF7464002438B5037C7F
:1031700004460BB9002038BDFEF762FC58B994F93B
:10318000043033B3FEF75CFC78B194F904305A1C78
:1031900016D10320EFE794F90430012BEFD1256815
:1031A000FEF790FB8542E5D1E9E794F90430012B65
:1031B000EBD12568FEF786FB8542E6D00220DAE7F0
:1031C000012BD7D12468FEF77DFB8442D2D10420A5
:1031D000D1E70120CFE700002DE9F04399B000F0DE
:1031E0005BFC052281490446FFF758F8064630B1DA
:1031F00000F056FC7E49FEF76DFF00249AE0204661
:1032000004227C49FFF74AF80446002800F0EA80CF
:1032100000F042FC06AF8046774CB14607C887E80D
:1032200007001422314609A800F0D0F914223146D3
:103230000EA800F0CBF926604046FEF71FFE0028DE
:1032400046D14046FEF71AFE58B9FEF7F9FB0028B2
:1032500074D19DF83430002B70D19DF84830002B8C
:103260006CD1664800F09AFB2368042BB8BF042396
:10327000236047E09DF85C300136012B15D0DBD38D
:10328000032BD9D80EA8FFF771FF054613A8FFF747
:103290006DFF8542D0D20DF14C0C0EADBCE80F0095
:1032A0000FC5DCF800302B60C6E709A8FFF75EFF0A
:1032B000054613A8FFF75AFF8542BDD213AD0DF1A5
:1032C000240C0FCDACE80F002B68CCF80030B3E72E
:1032D0003B214046FEF7A2FF0028B2D04146684697
:1032E000C4F80090FFF79CFEEC4613ADBCE80F005D
:1032F0000FC5DCF800302B602368002BBAD03F48A4
:1033000000F04CFB2368002B7FF477AFFEF798FBAF
:1033100000285ED09DF83430BBB99DF84830A3B981
:1033200000243846FEF7AAFD20B13B213846FEF7BF
:1033300075FFB0B9204619B0BDE8F083FEF780FBF9
:103340000028DFD0002EDDD18BE7FFF7EDF89DF8E8
:103350004830002BE4D04307E2D5FFF70DFD0446CB
:10336000E8E76E463946684613ADFFF759FE0FCEC3
:103370000FC533682B609DF95030A3B1012B15D0D8
:1033800001330CBF4FF0FF3000209DF85C50022D40
:103390000ED0032D12D0012D19D12946FEF752FB74
:1033A00003252C43BDE76FF00100EEE71398ECE72F
:1033B0002946FEF747FBFDF78DFBF1E70221FEF7FB
:1033C00041FBFDF787FB15A800F014FBE9E700259A
:1033D000E7E79DF848301BB10EA8FFF7FDFDBEE7FB
:1033E00009A8FAE7064800F0D9FAA3E785580608C5
:1033F0006D5806088058060874640024CC560608E8
:103400002259060808B5FEF71BFB18B1BDE80840B5
:10341000FEF746BB08BDC0E900127047002310B597
:103420001A464468944201D1184610BD016801EB68
:10343000C201013249680B44F4E70000002270B574
:10344000134646689E4207D10B4A00201368012BA1
:10345000B8BF012313600AE0056805EBC3056C687B
:1034600014448C4204D9891A2B6853F8210070BD8A
:1034700001332246E6E700BF74640024F0B500245F
:10348000476823469F4206D10A4A1368012BB8BFFA
:10349000012313600AE0066806EBC306756825443D
:1034A0008D4204D9091B336843F82120F0BD013354
:1034B0002C46E7E774640024F7B507460D46002460
:1034C000FFF7ACFF0646B44201D103B0F0BD214680
:1034D0003846FFF7B3FF0190C1B22846FEF76AFDF8
:1034E0009DF8051028460134FEF764FD9DF806108E
:1034F0002846FEF75FFD9DF807102846FEF75AFDA7
:10350000E1E7F7B506460D460024FFF787FF0746BB
:10351000BC421AD02846FEF76BFD8DF80400284601
:10352000FEF766FD8DF805002846FEF761FD8DF873
:1035300006002846FEF75CFD8DF807002146019A3B
:1035400030460134FFF79AFFE2E703B0F0BD70B5F3
:103550000E46054600F0A4FA04464F21FEF704FD8E
:10356000324629462046FEF7C2FD044600F0A0FA86
:10357000204670BD10B5044600F04CF801462046C8
:10358000BDE81040FFF7E3BF10B586B00B2204463C
:10359000694603A8FEF764FC03A80B49FEF79AFDF1
:1035A000214603A8FEF7F8FD03A8FEF761FC03A877
:1035B000FEF7D0FC044603A8FEF7C5FC01462046F2
:1035C000FFF7C5FF06B010BD8B580608024403463E
:1035D000934200D1704703F8011BF9E710B5441E70
:1035E00014F8012F11F8013BD01A01D1002AF7D1AC
:1035F00010BD30B562B1431E8D1813F8014F11F89C
:10360000012BA01A03D1A94201D0002CF5D130BD65
:103610001046FCE703461A78591C0AB9181A704775
:103620000B46F8E72DE9F04107460E461546002403
:10363000AC4206EB040002D12046BDE8F08100F068
:1036400063FC8046FDF71CFB0028F5D14146384657
:10365000FEF7B0FC0134EBE72DE9F84307460C46D2
:103660008E180E4D4FF00008B44201D1012008E041
:103670003846C5F80080FEF7BBFC2B68014613B145
:103680000020BDE8F883204604F1010900F042FC67
:10369000FDF7F6FA0028F3D14C46E5E77464002400
:1036A0002DE9F84307460C468E180E4D4FF00008E2
:1036B000B44201D1012008E03846C5F80080FEF789
:1036C00065FC2B68014613B10020BDE8F883204655
:1036D00004F1010900F01EFCFDF7D2FA0028F3D135
:1036E0004C46E5E774640024022AF7B50446154603
:1036F00006D0042A1CD003B0BDE8F040FFF792BF0B
:1037000011F00107F7D1084600F0FCFB0646FDF773
:10371000B7FA48B9F1B22046FEF74CFCC6F30721D0
:103720002046FEF747FC00E03D46284603B0F0BDCA
:1037300011F00306DFD1084600F0E2FB0190FDF72F
:103740009FFA88B99DF804102046FEF733FC9DF8D7
:1037500005102046FEF72EFC9DF806102046FEF7C9
:1037600029FC9DF80710DBE73546DEE7022A2DE944
:10377000F34707460D4606D0042A25D002B0BDE81F
:10378000F047FFF769BF11F00104F7D11C4E346018
:10379000FEF72EFC33688DF8040033B93846FEF787
:1037A00027FC33688DF805001BB1204602B0BDE848
:1037B000F087BDF80410284600F0AAFBFDF760FA78
:1037C000B0FA80F46409F0E711F00304D6D126467C
:1037D000DFF82C80A2460DF104093846C8F800A095
:1037E000FEF706FCD8F8003009F806000136002B79
:1037F000DBD1042EF1D10199284600F087FBDDE7EB
:1038000074640024022A2DE9F34707460D4606D0CA
:10381000042A25D002B0BDE8F047FFF741BF11F000
:103820000104F7D11C4E3460FEF7B0FB33688DF80D
:10383000040033B93846FEF7A9FB33688DF805005C
:103840001BB1204602B0BDE8F087BDF80410284641
:1038500000F05EFBFDF714FAB0FA80F46409F0E7BB
:1038600011F00304D6D12646DFF82C80A2460DF1D4
:1038700004093846C8F800A0FEF788FBD8F80030E5
:1038800009F806000136002BDBD1042EF1D1019995
:10389000284600F03BFBDDE77464002410B50C4CB7
:1038A000A36BDB0608D5FDF71DF928B9FDF7C0FFAE
:1038B0000028FBD0FDF7AEFCFDF772F9E3680BB111
:1038C00020699847A36B23F00203A36310BD00BFD8
:1038D000F426002470B59EB0502200210E4C0646FE
:1038E00000250E48FFF772FE01A8256000F09CFA43
:1038F000314601A8256000F0A7FA236813B901A892
:10390000FDF712FF236823B9044A936B43F00303C6
:1039100093631EB070BD00BF74640024F4260024BD
:103920002DE9F8430F4D89469046AC6B14F008041E
:1039300015D120F001060C4F30463C60FDF7C2FA6D
:103940003B681BB13C602046BDE8F883AB6B0124AB
:103950006E6343F00803C5E90098AB63F3E7002406
:10396000F1E700BFF426002474640024024BC3E98D
:1039700002011A61704700BFF426002410B5FDF75C
:10398000B9F80446FDF7BAF8024621460248BDE8F8
:10399000104000F07FB900BF0C27002410B504468A
:1039A000FFF7ECFF02482146BDE81040FEF792BB4E
:1039B00018270024024B986B00F00400704700BFEA
:1039C000F4260024024A936B43F01003936370477C
:1039D000F4260024024B986B00F04000704700BFB3
:1039E000F4260024024A936B43F04003936370472C
:1039F000F4260024054B03C803F13C0282E80300CF
:103A00009A6B42F020029A63704700BFF4260024AC
:103A1000014B5869704700BFF4260024014B5861E0
:103A2000704700BFF4260024044A936B18B143F09A
:103A300004039363704723F00403FAE7F426002499
:103A4000024B986C031F584258417047F4260024DB
:103A500008B5FDF731F9034BD3E91101BDE8084082
:103A6000FDF706B9F4260024014B83F84C0070479B
:103A7000F4260024014B93F84C007047F4260024F0
:103A8000014BC3E911017047F4260024014B986CE7
:103A9000704700BFF4260024004870471827002410
:103AA00008B5FFF76BFF014808BD00BF18270024C9
:103AB00008B50948FEF750FA28B1FFF75FFF07493C
:103AC0000548FEF707FB0448FEF7D2F90448BDE8B5
:103AD000084000F069B900BF1827002422570608E3
:103AE0000C270024F8B5184E184F06F10C05FFF707
:103AF00045FF304600F0DEF88FB92846FEF7B5F9ED
:103B00002846FEF743FA0023114A02EBC301097964
:103B1000814211D152F833309847044605E02846D7
:103B2000AFF3008004460028E7D0A20701D4FFF7D6
:103B3000BFFFE307DBD5F8BD0133122BE5D1054804
:103B40000024FFF72BFFF0E70C2700240000000003
:103B500090580608225906082DE9F7433D4CA36BFF
:103B6000606123F04003A363FCF7BCFFA36B064630
:103B7000180722D5FDF746F8636B20F00100984244
:103B80001BD1354F0025D4E900893D60FDF7D6F9FA
:103B90003A6802B13D60A36B656323F00803C4E992
:103BA0000055A363B8F1000F07D04846C04720B1C5
:103BB00003B0BDE8F043FFF725BCFDF7BDF884F87E
:103BC0004C000238C0B209280ED8012303FA00F0D5
:103BD00040F20533184217D1010705D56846FCF7B6
:103BE00091FF9DF800307BB9A36B9A060CD5FDF7C9
:103BF00009F8E36B834207D8236C834204D9FDF7AD
:103C0000B1F9FCF767FFD3E7A36B23F02003A363AD
:103C1000A3680BB120699847FDF76CFA94F84C3013
:103C2000052B0DD100F00AFA50B100F011FA38B1AD
:103C300036B9FFF7E7FB03B0BDE8F043FFF72EBE50
:103C4000A36B9B0701D4FCF767FFFFF795F8FFF71D
:103C500049FFF0E7F426002474640024A0F1610316
:103C6000052B01D857387047A0F14103052B01D827
:103C7000373870473038C3B2092B07D9044A4FF0A0
:103C8000FF301368022BB8BF02231360704700BFD8
:103C90007464002470B504460D4616460131043A9A
:103CA0000C30FEF7DDF8324629462046BDE870406C
:103CB000FEF7D6B82DE9F04104460023394F04F150
:103CC0000C0603838376FEF7D0F84FF00008207EC1
:103CD000242843D13046FEF7C8F884F81980FDF750
:103CE000B1FDC5B230462576FEF7C8F8002851D0A0
:103CF000242DECD0232D36D1C7F80080FDF7A2FD8E
:103D0000C5B22576FDF79EFDC1B228462176FFF7A4
:103D1000A5FF3B680546002B3FD10846FFF79EFFF5
:103D20003B68002B39D140EA0510A076FDF776FDFF
:103D30000028CCD1627EA37E9A4214BF2D202B2076
:103D4000FDF790FD627EA37E9A42BED13046FEF71B
:103D50008FF83046BDE8F041FEF787B8FDF772FDF9
:103D6000C0B22076B4E7637E7D2D2B4463760CD100
:103D7000FDF768FDC5B2A5F123032576012B09D90E
:103D8000637E2B4485F02005637629463046FEF796
:103D9000EBF8A4E7232D9AD1AEE7637EDB43A3764D
:103DA000C4E700BF7464002470B50446002504F124
:103DB0000C0605838576FEF758F83046FEF755F871
:103DC000657624212046FEF7CFF83046FEF756F8F8
:103DD000F8B929462046FEF758F823212046FEF779
:103DE000C3F82046617EFEF7E5F82046FEF740F86E
:103DF0002046FEF73AF82046FDF744FDFDF722FD88
:103E00002076C0B203280CD02B2801D02428EFD173
:103E100070BD30460135FEF7B9F8637E1844607610
:103E2000D3E7FFF7DFFDE9E710B5282200210446BC
:103E3000FFF7CCFB0023E36284F83030014BA36230
:103E400010BD00BF20590608F8B5002605462B4FC7
:103E50000C46282231463E60FFF7B8FB2B46EE6247
:103E6000214604F1400C03F8306F3A4618460C46E0
:103E700011F8016B26B161450C4600F8016BF6D1D3
:103E800000210170217821B111680129B8BF0121F9
:103E900011601068002830D14FF0010C197861B31F
:103EA000194602E0B74206D121460C4614F8017BC0
:103EB0002FB1AB6A013B13F8016F002EF2D11060F5
:103EC0000B7843B1EB6A092B97BF5C1CC2F800C0AA
:103ED000EC6245F8231013687BB90B4611F8017B9F
:103EE000002FDBD0AC6A013C14F8016F002EF4D037
:103EF000B742F9D118700133D0E7F8BD74640024DB
:103F0000006870470088704700787047016070470C
:103F10000180704701707047F7BE704730B585B0BB
:103F20000446FCF76FFEFFF7EDFF0546FCF7A8FE21
:103F300030B1414A002513680A2BB8BF0A23136029
:103F4000EDB2F53D0A2D74D8DFE805F06B6206117D
:103F50001B522946333D410023686846009363683D
:103F60000193A368029300F089F805B030BD23687F
:103F70006846009363680193A3680293FEF7B2FB5F
:103F8000F3E720680090FFF745FB63680130029378
:103F9000A368019068460393FEF754FBE5E72068A9
:103FA0000090FFF737FB013001906846FEF714FCE4
:103FB000DBE723686846009363680193A368029374
:103FC000FEF7C8FBD1E72068FEF7B0FBCDE7D4E9E8
:103FD0000001FEF7E3FBC8E720680090FFF71AFB3B
:103FE00001306368019068460293FEF711FCBCE75C
:103FF00020680090FFF70EFB01300190606802908E
:10400000FFF708FB013003906846FEF725FCACE79C
:10401000FFF73CFD0021FFF733FDFFF719FD0120FD
:10402000A3E7D4E901122068FFF7A0FC00210846AD
:10403000F1E7002099E700BF7464002408B5FCF79D
:1040400057FE0138C0B201288CBF0020012008BDF6
:104050001FB5FCF74DFE04466846FCF7EDFD012C4C
:1040600004D16846FDF72CFC04B010BD022C03D12E
:104070006846FFF753FFF7E70020F5E710B504683F
:10408000012C10D1D0E90101FFF761FA0021FFF7FF
:10409000F7FCFFF7DDFCFFF79DFC40B10220FFF7C6
:1040A000E3FC002010BDBDE81040FEF7F7BA204643
:1040B000F8E7002070470020704730B5A1F11004E8
:1040C000002500F00F02CD7302390009D3B2092A8E
:1040D000CCBF373330330B748C42F2D130BD2DE975
:1040E000FF470024061D05468A46904699460094DF
:1040F00023464FF0FF32B1213046CDE9014406F0AE
:1041000073FB29682846DDE90C23CDE900234246EC
:104110004F694B465146B847009423464FF0FF3253
:10412000C1213046CDE9014406F05EFB204604B0D3
:10413000BDE8F0872DE9D04F9B46036892460446C0
:104140009B6ADDE90889984702460B465046594666
:1041500018F02AF9134302D00020BDE8D08F23685D
:1041600020469B6A984702460B464046494618F04F
:104170001BF91343F0D11AEB0806236820464BEBDA
:1041800009079B6B9847B94208BFB0422CBF01207A
:104190000020E2E701682DE9F04114461D46096B55
:1041A0000646884702460B462046294618F0FCF88A
:1041B000134302D00020BDE8F081DDE9062330463C
:1041C000A71845EB030817F1FF323368196B48F164
:1041D000FF33884702460B463846414618F0E4F85C
:1041E0001343E7D1336830469B6B9847414508BF7E
:1041F000B8422CBF01200020DDE72DE9D04F9B46BF
:104200000368924604465B6ADDE9088998470246DE
:104210000B465046594618F0C7F8134302D0002009
:10422000BDE8D08F236820465B6A984702460B465C
:104230004046494618F0B8F81343F0D11AEB080687
:10424000236820464BEB09079B6B9847B94208BF90
:10425000B0422CBF01200020E2E7C22070470000DE
:10426000244830B5037887B0BFF35B8F13F00104A7
:104270001CD10AF0ADFCC8B11F4B66223B211F4880
:10428000CDE903435A23CDE901323D233C2200937B
:1042900057230CF033FC194C194B164823600AF0D5
:1042A000B9FC184A204618490AF082FC13480CF061
:1042B0005FFE164D1A22002329461048CDE900233F
:1042C00000230022FFF70BFF2B780446B52B04D107
:1042D0000F4B01221D600F4B1A7008480CF0A4FC14
:1042E000B4FA84F0400907B030BD02480AF09AFEE3
:1042F00017F07EFC68270024005A62027027002411
:104300002C59060800000024C5440408782900241C
:10431000080000246C27002410B504460DF0C4FAF0
:104320002146FFF7CAFE0DF0C5FA04F11001FFF7B0
:10433000C4FE0DF0C5FA04F12001FFF7BEFE3020E7
:1043400010BD000008B54DF659720021074812F063
:1043500025FABFF34F8F0649064BCA6802F4E062A4
:104360001343CB60BFF34F8F00BFFDE7442700240A
:1043700000ED00E00400FA0510B50446FCF782FBEE
:10438000204610BD064B10B504460360806A08B194
:1043900009F032FA201DFFF7EFFF204610BD00BFE5
:1043A0008465060800B5C3B01622172103A806F0DD
:1043B0007FF84FF4A17302AA1021ADF80830002352
:1043C00003A80093022305F0BEFF03A8FFF7DAFF5E
:1043D00043B05DF804FB03A8FFF7D4FF17F008FC17
:1043E0001D4B01211D4AA62070B51A6001F0A4FFE3
:1043F0000121A62002F020F8FFF7D4FF184B43F26A
:10440000D2021A60FFF72CFF164B1B7833B1164B04
:104410001B689A8840F209439A421BD8134B9B6D44
:1044200003F46043B3F5004F14D001F0DDFE104DEE
:10443000044601F0EBFE064601F0E8FE801BA842B0
:10444000FAD901F0D1FE001B642803D0BDE870400A
:1044500015F022BC70BD00BF442700240040005866
:10446000004000526C270024080000240044025839
:104470009F86010010B50446FFF784FFFC2120460B
:104480000AF01CFE204610BD38B5074B0546044611
:1044900045F8BC3B0CF0C8FB28460BF02FF8201D5C
:1044A00006F0E2F9204638BD3C83060810B5044604
:1044B000FFF7EAFF4FF4027120460AF0FFFD2046A5
:1044C00010BD0000034B10B504460360FFF7DCFF8E
:1044D000204610BD2C59060810B50446FFF7F2FF20
:1044E0004FF4027120460AF0E9FD204610BD70B578
:1044F00090F8343105461446F3B90368DB699847F0
:1045000004F4706304F00F02B3F5407F04F0F0038D
:104510000CBF07210821302B0CBF02230123012AE5
:1045200008D0901E42424241A869BDE87040006830
:1045300006F066BA0222F7E770BD10B590F8343184
:1045400004462BB9A369186806F09EFA0028F9D032
:1045500010BD38B590F834510446A5B983695BB1F4
:10456000186848B10368DB689847A36904211D6097
:10457000A0690AF0A3FDA5610023C4F82831C4F89E
:104580002C31C4F8303138BD13B590F834310446BD
:104590006BBBA369186806F04BFA40B309F028FF1B
:1045A000A36901220DF10701186803685B69984748
:1045B000D4F83031B3F5807F16D0D4F83031B3F56C
:1045C000807F11D0D4F828319DF80720234483F848
:1045D0002820D4F828310133DBB2C4F82831D4F8CC
:1045E00030310133C4F8303109F018FFD1E702B09F
:1045F00010BD000008B590F834313BB1012001F046
:1046000011FE0648BDE8084001F057BA82691AB1A8
:104610001368003318BF0123184608BD083400246E
:1046200070B504460D4601F048FA30B123682946BA
:1046300020461B6CBDE87040184770BDA0F598601F
:10464000EEE7000013B590F8343104468DF80710FA
:104650002BB1C9B20B48FFF7E3FF02B010BDA3694D
:10466000186806F011FA0028F9D0A36901220DF1AB
:104670000701186803681B699847013018BF0120BB
:10468000EBE700BF083400242DE9F04107468846D7
:10469000164601F012FA80B10024A6420ED9351B4D
:1046A00008EB04013846B5F5007F28BF4FF40075CC
:1046B0002A462C4400F048FFEFE704462046BDE8B8
:1046C000F081A0F59860DFE770B590F834310546C9
:1046D0000E4614462BB10F48FFF7D6FF044620467E
:1046E00070BDAB69186806F0CFF90028F9D0AB6946
:1046F00001211868D0F8883088301B6B9847AB6967
:1047000022463146186803681B699847013008BF84
:104710000024E4E70834002430B50446C3B001F0B7
:10472000B7F90546D4F8D835C3F58073984203DD50
:10473000D4F8D855C5F580752A4601AB02A92046A4
:1047400000F0F9FF019902AB00226D1A1D44D4F864
:10475000D835B3F5807F19D08A4217D0D4F8D83530
:10476000B3F5807F10D0D4F8D035A85C234483F80B
:10477000D004D4F8D0350133DBB2C4F8D035D4F846
:10478000D8350133C4F8D8350132E0E743B030BD45
:1047900038B5044600F0BCFB2046FFF7BDFFD4F857
:1047A000D855204600F0BCFB284638BDA0F59860DF
:1047B000EEE7000010B590F8343104462BB10648FE
:1047C000FFF7E6FF0446204610BD09F011FED4F8BD
:1047D000304109F023FEF6E70834002438B50446DA
:1047E00000F096FB2046FFF797FFD4F8D8354BB181
:1047F000D4F8D435234493F8D054204600F090FBED
:10480000284638BD4FF0FF35F7E7A0F59860E5E79B
:1048100010B590F8343104462BB10B48FFF7DEFF9A
:104820000446204610BD09F0E3FDD4F830313BB119
:10483000D4F82C01044494F8284009F0EFFDF0E787
:104840004FF0FF34F9E700BF0834002438B50446C0
:1048500000F05EFB2046FFF75FFFD4F8D835A3B128
:10486000D4F8D435234493F8D054D4F8D435013354
:10487000DBB2C4F8D435D4F8D835013BC4F8D83508
:10488000204600F04DFB284638BD4FF0FF35F7E7D6
:10489000A0F59860DAE7000010B590F834310446CE
:1048A0002BB11148FFF7D2FF0446204610BD09F096
:1048B0009FFDD4F830319BB1D4F82C31234493F8C8
:1048C0002800D4F82C310133DBB2C4F82C31D4F8F1
:1048D0003031013BC4F83031044609F09FFDE4E774
:1048E0004FF0FF34F9E700BF0834002408B54FF457
:1048F000807200211AF0D4FA0022C0F80021C0F81A
:104900000421C0F8082108BD10B4D0E900340968BA
:104910006210E4075DF8044B01EB020044BF8A58C3
:10492000D35818470146043008B5FFF7EDFF08BD1E
:10493000034A0346C26007C983E80700704700BF07
:104940007C59060810B586B004460391684606A94E
:1049500080E80C0001E90C00204603A9FFF7E8FFFE
:10496000204606B010BD37B56C46054684E80C00FD
:1049700094E80C00FFF7E6FF284603B030BD0000C6
:1049800070B590F8343186B004460E46002B3BD10A
:10499000856925B904200AF05DFBA0610560A36963
:1049A000186850BB8C200AF055FB3346B4F922201E
:1049B0000546B4F9201006F04FFBA3691D60B4F959
:1049C0002420531C06D0A0690321B4F926300068C6
:1049D00006F052FBA3691D68B5B1114B00262146B4
:1049E00002A800936B4601960CCBFFF7BCFF324642
:1049F00002A9284606F0B6F803E0314605F0EDFFBF
:104A0000DDE702A8FDF75CF906B070BD8C212846F1
:104A10000AF054FB17F0ECF802A8FDF751F9F9E79A
:104A20008945040808B5FFF77DFF08BD08B5FFF705
:104A3000F9FF08BD2DE9F84300242D4D4FF47A7895
:104A40002C4F202605F128002F60EC61C5E90148B4
:104A5000C5E90564FFF74AFF01230E2085F83431CC
:104A600001F0A8FB244D81460D2001F0A3FBA5F821
:104A700020904FF6FF79688405F128002F60EC61E3
:104A8000A5F82490A5F82690C5E90148C5E9056474
:104A9000FFF72CFF85F834410F23184D2B84562344
:104AA00005F128002F606B845823EC61AB845923F7
:104AB000C5E90148EB84C5E90564FFF717FF85F8F0
:104AC000344198230E4D2B84992305F128002F6043
:104AD000EC616B84A5F82490A5F82690C5E90148FF
:104AE000C5E90564FFF702FF85F83441BDE8F883A6
:104AF0003C2D00249059060894290024CC2A002437
:104B0000042C0024002070477047704710B5D0F87F
:104B10008C452CB123682046DB6A9847A468F8E7E7
:104B200010BD38B50D46D0F88C4534B12368204609
:104B30002946DB689847A468F7E738BD0048704706
:104B4000505A0608054B10B50446036007F009FDEE
:104B5000204607F017FE204610BD00BFD0590608BA
:104B600010B50446FFF7EEFF4FF4B26120460AF09D
:104B7000A5FA204610BDF7B5002305460E46D0F82D
:104B80008C45A4B1236831460DF1030220461F690C
:104B900001ABB8479DF803100346042905D0019ADC
:104BA000284606F0EDFF03B0F0BDA468E9E7019ADE
:104BB0009DF80310F4E770B505460E4622B10021BA
:104BC000BDE8704006F0E8BDD0F88C455CB12368C4
:104BD0000022314620465B69984710B101212846E2
:104BE000EEE7A468F2E72146F9E770B50E46054600
:104BF000D0F88C4500213CB12368314620469B69A2
:104C00009847A4680146F6E72846BDE8704006F0DC
:104C1000B7BEF8B505460E461746D0F88C453CB1F0
:104C2000236820463A463146DB699847A468F6E790
:104C300028460121BDE8F84006F000BF70B500210C
:104C400086B0044607F0E7F800234FF48975A18881
:104C5000EF26ADF806302389ADF8045002258DF813
:104C600010301B0AE2888DF8113040F201238DF8D4
:104C70000750ADF8123040F203138DF809500125AA
:104C8000ADF8143004F10A038DF8086005AE8DF814
:104C90000A501C468DF80C1001AD090A8DF80E2043
:104CA000120A8DF80B008DF80D108DF80F202A4692
:104CB000083303CAB24243F8080C43F8041C1546F3
:104CC000F5D1128820461A8006B070BDF8B50024D0
:104CD00006460D46274630461BF0B2F8A04207D9DB
:104CE000335D05F8143005EB440301345F70F2E7DF
:104CF000400000F0FE00F8BD38B50446D0F88C55F1
:104D000035B12B6828465B6A984710B9AD68F7E75C
:104D1000284640F2023304F24A51A4F84835FFF71E
:104D2000D5FF94F84835184484F8480504F5A9607F
:104D300038BD000040F2023300F20A5110B50446BB
:104D4000A0F808350548FFF7C1FF94F80835184466
:104D500084F8080504F5A16010BD00BFBC59060821
:104D600040F2023310B50446A0F8C83400F2CA403D
:104D7000FFF7D2FA94F8C834184484F8C80404F54C
:104D8000996010BD2DE9FF4100231D4A044600F53E
:104D90004E788DF80A30092590F888350192FA226C
:104DA0008DF8083001238DF80C208DF80930C023D0
:104DB0008DF80B3001AB03CBC4F83803C8F80410EE
:104DC00088F80820D4F88C658EB13368002130460D
:104DD0009B689847478805F54E7300F10901093F24
:104DE000E0183A463D4419F05DFFB668ECE784F8F8
:104DF0003A5340462D1284F83B5304B0BDE8F0818D
:104E00000902FFFF73B504460D46164613F08CFEEB
:104E10004FF4807301462A4620460093334607F03C
:104E20006DFC024B2046236002B070BDD0590608CD
:104E300010B5D0F88C350446A3B9C0F88C1594F899
:104E4000883508464A790B7194F88835134484F8FC
:104E500088350B689B6A9847238918442081012074
:104E600010BD13469A68002AFBD19960E7E71FB589
:104E7000044606F0CBFF0146684606F0C5F940211E
:104E8000684606F033FAD4F88C4534B12368694695
:104E900020461B6A9847A468F7E7684606F0BBF906
:104EA00004B010BD684606F0B6F916F0A1FE10B5C4
:104EB0000446FFF7DCFF2046BDE8104006F08DBF3A
:104EC0000F4808B50378BFF35B8FDB0711D409F0F7
:104ED0007FFE70B140F25B2242F241310948FFF798
:104EE00091FF074809F096FE074A0849054809F06E
:104EF0005FFE044808BD02480AF094F816F078FEF8
:104F0000742E0024782E002400000024454B040851
:104F100010B5FFF7D5FF0368BDE810405B6F184779
:104F200010B5FFF7CDFF0368BDE810409B6F184731
:104F300010B5FFF7C5FF0368BDE81040DB6F1847E9
:104F400006F00ABB06F01EBB06F0F6BA70477047C3
:104F50007047436A93F878007047D0F8A40470470C
:104F60000120704700487047BC5B06082DE9F047F8
:104F700094B004460F464B22002101A819F090FF7F
:104F80002679D4F8A434751C94F80E90002B94F86C
:104F90000C80EDB294F80DE014BF05200020002F26
:104FA00040F0938040F2092309218DF81D0042F260
:104FB0000540ADF804304FF481738DF815100121D0
:104FC000ADF808308023ADF81E0010208DF80B30AE
:104FD00032234FF0040A24278DF80C3008234FF0B9
:104FE000030C4B228DF80D300B238DF819101D3456
:104FF0008DF80E3040F202238DF81C10ADF8103001
:1050000002238DF8210005208DF822108DF825103F
:105010008DF8271006218DF806208DF80F608DF889
:1050200012308DF817608DF81A308DF81B308DF81E
:1050300023008DF826C08DF82A308DF82B108DF8BE
:105040002C008DF816A08DF824708DF828A08DF80E
:1050500029708DF82D708DF82E1007218DF82F6096
:1050600041F202068DF831108DF8411040F20751DF
:105070008DF83050ADF8366040F209468DF83A5060
:1050800040F602258DF832008DF842002046ADF83A
:1050900048100DEB0A018DF833908DF834C0ADF84F
:1050A0003860ADF83C508DF843808DF844308DF871
:1050B00046308DF84AE08DF84B308DF84D3019F0C0
:1050C000F1FD204614B0BDE8F0870020FAE70000AB
:1050D0000A4B10B504460360FFF7F2FE07F041FAF1
:1050E00004F5247006F09CF904F17C0006F098F9B0
:1050F00004F1700006F094F9204610BD7C5B0608B0
:1051000010B50446FFF7E4FF4FF49561204609F01F
:10511000D5FF204610BDFFF70BBF0000034B10B5B5
:105120000446036006F038F8204610BD985A060879
:1051300010B50446FFF7F2FF2821204609F0BEFF14
:10514000204610BD034B10B50446036006F024F85A
:10515000204610BD685A060810B50446FFF7F2FF56
:105160003421204609F0AAFF204610BD034B10B59C
:105170000446036006F010F8204610BD805A060869
:1051800010B50446FFF7F2FF3821204609F096FFDC
:10519000204610BD38B51E4B0D4604464FF4007234
:1051A0001968C0F80F1099889B79A0F81310022194
:1051B0004375284606F090F84FF4007220730221E0
:1051C000284606F08EF84FF40072607303212846DB
:1051D00006F082F8A073284606F01EF820B9AF2228
:1051E0000C490D4809F00CF804F185020023C4F8BD
:1051F000882204F2992284F8783084F88430C4F844
:105200008C3284F89832C4F89C24C4F8A03438BD99
:10521000B45A0608575B0608625B06082DE9F3419D
:1052200004460E461546FFF783FEF28823799A421C
:1052300037D1002D35D17778012F2ED1F378202B5F
:1052400027D13289072A24D104F10F0804F1160569
:105250004046294619F0F4FCD0B1D4F81630C4F811
:105260000F30638B207CE17BA4F8133001EB00212D
:10527000E57C607C237F01EB00410095A07C2568E4
:10528000637501EB0061237D2046627D6D6BA8474D
:105290003D46F378212B08BF0125284602B0BDE822
:1052A000F0810025F9E710B50446FFF741FEFFF74E
:1052B00007FE217B06F0F2FF04F1850304F17C0078
:1052C000C4F888320023C4F88C3284F8843006F0A5
:1052D0005CF894F884302BB923682046DB6BBDE87A
:1052E0001040184710BD000070B50446FFF720FEBF
:1052F000D4F8A0542DB140F2DD120F490F4808F048
:105300007FFF04F29923C4F89C34FFF7D9FD617B39
:1053100006F022FF84F89852C4F8A00404F5247023
:1053200006F033F894F898322BB9236820469B6B2B
:10533000BDE87040184770BD575B0608C05A0608A4
:105340000022C2607047000002232DE9F041437142
:1053500000230446054683609046144B04F17C0606
:1053600045F8703B284606F003F8304606F000F892
:1053700004F52477384605F0FBFFC4F8A484FFF752
:105380009FFD2146FFF754FD0CE0384606F048F833
:10539000304606F045F8284606F042F816F028FC9C
:1053A000F6E7F8E72046BDE8F08100BF7C5B060821
:1053B00070B504460D46FFF7BBFD84F87850002D0C
:1053C0003ED194F8843033B1FFF77AFD217B06F0AB
:1053D0003DFD84F8845004F1850304F17C0600252A
:1053E0003046C4F88832C4F88C5205F0CEFF3046FF
:1053F00005F0C4FF28B94FF4A2721449144808F00C
:10540000FFFE94F8983233B1FFF75AFD217B06F086
:105410001DFD84F8985204F2992304F52475C4F80C
:105420009C3400232846C4F8A03405F0AEFF28467B
:1054300005F0A4FF20B94FF4A77204490548DEE740
:1054400004F17000BDE8704005F09FBF575B06088F
:10545000CE5A0608DF5A060810B50446FFF768FD65
:1054600000212046BDE81040FFF7A2BF38B50D4629
:105470000446FFF75DFD042D05D020460021BDE860
:105480003840FFF795BF38BDF8B5164604460D46BF
:105490001F46FFF74DFD0423EA88337023799A42B3
:1054A00025D16978012922D1EA78212A08D0222A37
:1054B0000BD0202A4FF000001BD13070163401E0D1
:1054C0000F34317007203C60F8BDAB88204613F0E4
:1054D000010308BF1946FFF76BFFAB8803F0010318
:1054E000E366AB8803F00203A36602233370002057
:1054F000EAE703233370E7E710B58AB00446FFF705
:1055000007FD684605F038FE0D4B694604F1700052
:105510000093099405F051FF2046FFF701FD094B68
:10552000002168461A6805F0EDFD6846FFF7F6FDB4
:105530000AB010BD6846FFF7F1FD16F059FB00BF39
:10554000985A0608BC5A060870B58EB004460E4636
:105550001546FFF7DDFC01A805F00EFE114B01A971
:1055600004F17C00019300230C958DF83430CDE9D3
:105570000A4605F022FF2046FFF7D2FC0A4B002125
:1055800001A81A6805F0BEFD04E001A8FFF7DAFDE6
:1055900016F02EFB9DF8344001A8FFF7D3FD2046FE
:1055A0000EB070BD685A0608BC5A060810B504460D
:1055B000FFF7BEFC94F884307BB9D4F88C3263B129
:1055C000FFF77EFCD4F88C3204F18502217B06F0D3
:1055D00003FE10B1012384F8843010BD2DE9F84397
:1055E0001E460446894690469DF82070FFF790FCC1
:1055F0000023336094F87830E3B194F88430CBB969
:10560000D4F88C52C5F50075454528BF4546B8F11C
:10561000000F05D02A464946D4F8880219F042FB0B
:10562000D4F88C322B44C4F88C32356017B1204644
:10563000FFF7BCFF2046BDE8F843FFF771BCF0B5AB
:105640000446406A85B0012690F878502DB984F858
:1056500030503546284605B0F0BD04AB0027D4E9EC
:105660000A1243F8047D0096FFF7B8FF0399E36A36
:10567000A26A5B1A0A44E362A26213B984F830603A
:10568000E8E7606A3D46FFF791FFE3E72DE9F04365
:105690001C4691B0054689469046FFF739FC002C20
:1056A0004FF0000602A806BF01AC012700272660C4
:1056B00005F062FD134B02A905F5247002938DF8E5
:1056C0003C708DF83D60CDE90B59CDE90D8405F0B6
:1056D00074FE2846FFF724FC0B4B314602A81A68DB
:1056E00005F010FD04E002A8FFF740FD16F080FA77
:1056F0009DF83D4002A8FFF739FD204611B0BDE8F6
:10570000F08300BF805A0608BC5A060810B5D0F8CE
:10571000A034044673B990F898325BB9FFF7D0FB18
:105720004FF4007304F29922617B06F0B7FC012369
:1057300084F8983210BD70B504461E460023084612
:10574000336094F87830EBB194F89832D3B9D4F848
:10575000A054D4F89C14954228BF15462A4619F047
:10576000A1FA3560D4F89C34D4F8A0242B44551BFE
:10577000C4F89C34C4F8A05425B92046BDE8704054
:10578000FFF7C4BF70BD37B50446406A90F8785043
:105790002DB984F835500125284603B030BD02AB41
:1057A000002243F8042DD4E90A12FFF7C4FF01993F
:1057B000A26A0A44A262226B13680B441360019927
:1057C000E36A5B1A94F83410E36209B9126802B90B
:1057D0001BB9012384F83530DEE7606A0025FFF746
:1057E00095FFD9E710B504460021FFF7A9FD204633
:1057F00010BD10B50446FFF7F5FF204610BD10B4EC
:10580000D0E9003409686210E4075DF8044B01EB4D
:10581000020044BF8A58D35818470146043008B5DF
:10582000FFF7EDFF08BD0000034A0346C26007C949
:1058300083E80700704700BFA85A060810B586B075
:1058400004460391684606A980E80C0001E90C00B3
:10585000204603A9FFF7E8FF204606B010BD37B584
:105860006C46054684E80C0094E80C00FFF7E6FF60
:10587000284603B030BD0000F0B58BB00546FFF7F9
:1058800057FB06ACFFF71CFBAF7B0646002120460A
:10589000FFF7AFFF009403234FF400723946304600
:1058A00006F0C2FE2046FCF70BFAFFF709FB234B7C
:1058B00006462F7B0293002329462046039302AB22
:1058C0000CCBFFF7CCFF009402234FF40072394653
:1058D000304606F0A9FE2046FCF7F2F9FFF7F0FA91
:1058E000174B06466F7B04930023294620460593F9
:1058F00004AB0CCBFFF7B3FF009402234FF400720C
:105900003946304606F090FE06E02046FCF7D8F90E
:1059100016F06EF9F9E7F8E72046FCF7D1F9FFF742
:10592000CFFA4FF40073D5F89C24697B06F0B6FBE0
:10593000012085F898020BB0F0BD00BFA752040803
:10594000E952040808B5FFF768FF08BD08B5FFF77E
:10595000F9FF08BD6FF01500704700290CBF6FF00C
:10596000180000207047012070476FF01500704745
:105970006FF01500704711207047704770477047EF
:1059800003689B6C1847A0F59860F9E7704770476B
:105990007047704710B50446012000F043FC94F8AE
:1059A000780010BDA0F59860F4E7000038B54FF01E
:1059B000FF320123FF210B4809F01EFD0A4D00F0C4
:1059C00013FC044695F878301BB1012000F02AFC46
:1059D000F8E700F009FC001BC728F6D9BDE83840FD
:1059E000FEF7B0BC403A00240834002407B502ABEF
:1059F000012243F8041D1946FFF7A6FD18B10198CE
:105A000003B05DF804FB4FF0FF30F9E7A0F59560B7
:105A1000FFF7ECBF07B5002302A9012201F8013D01
:105A2000FFF734FE20B19DF8070003B05DF804FBDA
:105A30004FF0FF30F9E7A0F59560FFF7EBBF2DE9D8
:105A4000F8430446884617461E46089DFFF770FA3D
:105A5000D4F8F095B9F1000F04D02B463246394600
:105A60004046C847C4F8E085C4F8E475C4F8E86562
:105A7000C4F8EC55BDE8F883B0F5966F03D1012169
:105A8000014809F09BBC7047403A00240068704709
:105A900038B50546FFF73CFA95F898325BB9D5F86A
:105AA000A044B4F5007F28BF4FF400742846FFF7E8
:105AB00037FA204638BD0024F8E790F878007047A0
:105AC000114B03F1780270B503600446C0F8A824B6
:105AD00000F2F45603F1D80200F23465E833C0F85E
